{
  "contractName": "NFT",
  "abi": [
    {
      "inputs": [],
      "stateMutability": "nonpayable",
      "type": "constructor"
    },
    {
      "anonymous": false,
      "inputs": [
        {
          "indexed": true,
          "internalType": "address",
          "name": "owner",
          "type": "address"
        },
        {
          "indexed": true,
          "internalType": "address",
          "name": "approved",
          "type": "address"
        },
        {
          "indexed": true,
          "internalType": "uint256",
          "name": "tokenId",
          "type": "uint256"
        }
      ],
      "name": "Approval",
      "type": "event"
    },
    {
      "anonymous": false,
      "inputs": [
        {
          "indexed": true,
          "internalType": "address",
          "name": "owner",
          "type": "address"
        },
        {
          "indexed": true,
          "internalType": "address",
          "name": "operator",
          "type": "address"
        },
        {
          "indexed": false,
          "internalType": "bool",
          "name": "approved",
          "type": "bool"
        }
      ],
      "name": "ApprovalForAll",
      "type": "event"
    },
    {
      "anonymous": false,
      "inputs": [
        {
          "indexed": true,
          "internalType": "address",
          "name": "from",
          "type": "address"
        },
        {
          "indexed": true,
          "internalType": "address",
          "name": "to",
          "type": "address"
        },
        {
          "indexed": true,
          "internalType": "uint256",
          "name": "tokenId",
          "type": "uint256"
        }
      ],
      "name": "Transfer",
      "type": "event"
    },
    {
      "inputs": [
        {
          "internalType": "address",
          "name": "to",
          "type": "address"
        },
        {
          "internalType": "uint256",
          "name": "tokenId",
          "type": "uint256"
        }
      ],
      "name": "approve",
      "outputs": [],
      "stateMutability": "nonpayable",
      "type": "function"
    },
    {
      "inputs": [
        {
          "internalType": "address",
          "name": "owner",
          "type": "address"
        }
      ],
      "name": "balanceOf",
      "outputs": [
        {
          "internalType": "uint256",
          "name": "",
          "type": "uint256"
        }
      ],
      "stateMutability": "view",
      "type": "function"
    },
    {
      "inputs": [
        {
          "internalType": "uint256",
          "name": "tokenId",
          "type": "uint256"
        }
      ],
      "name": "getApproved",
      "outputs": [
        {
          "internalType": "address",
          "name": "",
          "type": "address"
        }
      ],
      "stateMutability": "view",
      "type": "function"
    },
    {
      "inputs": [
        {
          "internalType": "address",
          "name": "owner",
          "type": "address"
        },
        {
          "internalType": "address",
          "name": "operator",
          "type": "address"
        }
      ],
      "name": "isApprovedForAll",
      "outputs": [
        {
          "internalType": "bool",
          "name": "",
          "type": "bool"
        }
      ],
      "stateMutability": "view",
      "type": "function"
    },
    {
      "inputs": [],
      "name": "name",
      "outputs": [
        {
          "internalType": "string",
          "name": "",
          "type": "string"
        }
      ],
      "stateMutability": "view",
      "type": "function"
    },
    {
      "inputs": [
        {
          "internalType": "uint256",
          "name": "tokenId",
          "type": "uint256"
        }
      ],
      "name": "ownerOf",
      "outputs": [
        {
          "internalType": "address",
          "name": "",
          "type": "address"
        }
      ],
      "stateMutability": "view",
      "type": "function"
    },
    {
      "inputs": [
        {
          "internalType": "address",
          "name": "from",
          "type": "address"
        },
        {
          "internalType": "address",
          "name": "to",
          "type": "address"
        },
        {
          "internalType": "uint256",
          "name": "tokenId",
          "type": "uint256"
        }
      ],
      "name": "safeTransferFrom",
      "outputs": [],
      "stateMutability": "nonpayable",
      "type": "function"
    },
    {
      "inputs": [
        {
          "internalType": "address",
          "name": "from",
          "type": "address"
        },
        {
          "internalType": "address",
          "name": "to",
          "type": "address"
        },
        {
          "internalType": "uint256",
          "name": "tokenId",
          "type": "uint256"
        },
        {
          "internalType": "bytes",
          "name": "_data",
          "type": "bytes"
        }
      ],
      "name": "safeTransferFrom",
      "outputs": [],
      "stateMutability": "nonpayable",
      "type": "function"
    },
    {
      "inputs": [
        {
          "internalType": "address",
          "name": "operator",
          "type": "address"
        },
        {
          "internalType": "bool",
          "name": "approved",
          "type": "bool"
        }
      ],
      "name": "setApprovalForAll",
      "outputs": [],
      "stateMutability": "nonpayable",
      "type": "function"
    },
    {
      "inputs": [
        {
          "internalType": "bytes4",
          "name": "interfaceId",
          "type": "bytes4"
        }
      ],
      "name": "supportsInterface",
      "outputs": [
        {
          "internalType": "bool",
          "name": "",
          "type": "bool"
        }
      ],
      "stateMutability": "view",
      "type": "function"
    },
    {
      "inputs": [],
      "name": "symbol",
      "outputs": [
        {
          "internalType": "string",
          "name": "",
          "type": "string"
        }
      ],
      "stateMutability": "view",
      "type": "function"
    },
    {
      "inputs": [
        {
          "internalType": "uint256",
          "name": "tokenId",
          "type": "uint256"
        }
      ],
      "name": "tokenURI",
      "outputs": [
        {
          "internalType": "string",
          "name": "",
          "type": "string"
        }
      ],
      "stateMutability": "view",
      "type": "function"
    },
    {
      "inputs": [
        {
          "internalType": "address",
          "name": "from",
          "type": "address"
        },
        {
          "internalType": "address",
          "name": "to",
          "type": "address"
        },
        {
          "internalType": "uint256",
          "name": "tokenId",
          "type": "uint256"
        }
      ],
      "name": "transferFrom",
      "outputs": [],
      "stateMutability": "nonpayable",
      "type": "function"
    },
    {
      "inputs": [
        {
          "internalType": "address",
          "name": "owner",
          "type": "address"
        }
      ],
      "name": "mint",
      "outputs": [],
      "stateMutability": "nonpayable",
      "type": "function"
    },
    {
      "inputs": [],
      "name": "get",
      "outputs": [
        {
          "internalType": "string",
          "name": "",
          "type": "string"
        }
      ],
      "stateMutability": "view",
      "type": "function"
    },
    {
      "inputs": [
        {
          "internalType": "string",
          "name": "_value",
          "type": "string"
        }
      ],
      "name": "set",
      "outputs": [],
      "stateMutability": "nonpayable",
      "type": "function"
    }
  ],
  "bytecode": "0x60806040523480156200001157600080fd5b506040518060400160405280600781526020017f546573744e4654000000000000000000000000000000000000000000000000008152506040518060400160405280600481526020017f5445535400000000000000000000000000000000000000000000000000000000815250816000908051906020019062000096929190620000b8565b508060019080519060200190620000af929190620000b8565b505050620001cd565b828054620000c69062000197565b90600052602060002090601f016020900481019282620000ea576000855562000136565b82601f106200010557805160ff191683800117855562000136565b8280016001018555821562000136579182015b828111156200013557825182559160200191906001019062000118565b5b50905062000145919062000149565b5090565b5b80821115620001645760008160009055506001016200014a565b5090565b7f4e487b7100000000000000000000000000000000000000000000000000000000600052602260045260246000fd5b60006002820490506001821680620001b057607f821691505b60208210811415620001c757620001c662000168565b5b50919050565b61299b80620001dd6000396000f3fe608060405234801561001057600080fd5b50600436106101005760003560e01c80636a62784211610097578063a22cb46511610066578063a22cb465146102ab578063b88d4fde146102c7578063c87b56dd146102e3578063e985e9c51461031357610100565b80636a627842146102235780636d4ce63c1461023f57806370a082311461025d57806395d89b411461028d57610100565b806323b872dd116100d357806323b872dd1461019f57806342842e0e146101bb5780634ed3885e146101d75780636352211e146101f357610100565b806301ffc9a71461010557806306fdde0314610135578063081812fc14610153578063095ea7b314610183575b600080fd5b61011f600480360381019061011a9190611834565b610343565b60405161012c919061187c565b60405180910390f35b61013d610425565b60405161014a9190611930565b60405180910390f35b61016d60048036038101906101689190611988565b6104b7565b60405161017a91906119f6565b60405180910390f35b61019d60048036038101906101989190611a3d565b61053c565b005b6101b960048036038101906101b49190611a7d565b610654565b005b6101d560048036038101906101d09190611a7d565b6106b4565b005b6101f160048036038101906101ec9190611c05565b6106d4565b005b61020d60048036038101906102089190611988565b6106ee565b60405161021a91906119f6565b60405180910390f35b61023d60048036038101906102389190611c4e565b6107a0565b005b6102476107c6565b6040516102549190611930565b60405180910390f35b61027760048036038101906102729190611c4e565b610858565b6040516102849190611c8a565b60405180910390f35b610295610910565b6040516102a29190611930565b60405180910390f35b6102c560048036038101906102c09190611cd1565b6109a2565b005b6102e160048036038101906102dc9190611db2565b6109b8565b005b6102fd60048036038101906102f89190611988565b610a1a565b60405161030a9190611930565b60405180910390f35b61032d60048036038101906103289190611e35565b610ac1565b60405161033a919061187c565b60405180910390f35b60007f80ac58cd000000000000000000000000000000000000000000000000000000007bffffffffffffffffffffffffffffffffffffffffffffffffffffffff1916827bffffffffffffffffffffffffffffffffffffffffffffffffffffffff1916148061040e57507f5b5e139f000000000000000000000000000000000000000000000000000000007bffffffffffffffffffffffffffffffffffffffffffffffffffffffff1916827bffffffffffffffffffffffffffffffffffffffffffffffffffffffff1916145b8061041e575061041d82610b55565b5b9050919050565b60606000805461043490611ea4565b80601f016020809104026020016040519081016040528092919081815260200182805461046090611ea4565b80156104ad5780601f10610482576101008083540402835291602001916104ad565b820191906000526020600020905b81548152906001019060200180831161049057829003601f168201915b5050505050905090565b60006104c282610bbf565b610501576040517f08c379a00000000000000000000000000000000000000000000000000000000081526004016104f890611f48565b60405180910390fd5b6004600083815260200190815260200160002060009054906101000a900473ffffffffffffffffffffffffffffffffffffffff169050919050565b6000610547826106ee565b90508073ffffffffffffffffffffffffffffffffffffffff168373ffffffffffffffffffffffffffffffffffffffff1614156105b8576040517f08c379a00000000000000000000000000000000000000000000000000000000081526004016105af90611fda565b60405180910390fd5b8073ffffffffffffffffffffffffffffffffffffffff166105d7610c2b565b73ffffffffffffffffffffffffffffffffffffffff161480610606575061060581610600610c2b565b610ac1565b5b610645576040517f08c379a000000000000000000000000000000000000000000000000000000000815260040161063c9061206c565b60405180910390fd5b61064f8383610c33565b505050565b61066561065f610c2b565b82610cec565b6106a4576040517f08c379a000000000000000000000000000000000000000000000000000000000815260040161069b906120fe565b60405180910390fd5b6106af838383610dca565b505050565b6106cf838383604051806020016040528060008152506109b8565b505050565b80600690805190602001906106ea929190611725565b5050565b6000806002600084815260200190815260200160002060009054906101000a900473ffffffffffffffffffffffffffffffffffffffff169050600073ffffffffffffffffffffffffffffffffffffffff168173ffffffffffffffffffffffffffffffffffffffff161415610797576040517f08c379a000000000000000000000000000000000000000000000000000000000815260040161078e90612190565b60405180910390fd5b80915050919050565b6107aa6007611031565b60006107b66007611047565b90506107c28282611055565b5050565b6060600680546107d590611ea4565b80601f016020809104026020016040519081016040528092919081815260200182805461080190611ea4565b801561084e5780601f106108235761010080835404028352916020019161084e565b820191906000526020600020905b81548152906001019060200180831161083157829003601f168201915b5050505050905090565b60008073ffffffffffffffffffffffffffffffffffffffff168273ffffffffffffffffffffffffffffffffffffffff1614156108c9576040517f08c379a00000000000000000000000000000000000000000000000000000000081526004016108c090612222565b60405180910390fd5b600360008373ffffffffffffffffffffffffffffffffffffffff1673ffffffffffffffffffffffffffffffffffffffff168152602001908152602001600020549050919050565b60606001805461091f90611ea4565b80601f016020809104026020016040519081016040528092919081815260200182805461094b90611ea4565b80156109985780601f1061096d57610100808354040283529160200191610998565b820191906000526020600020905b81548152906001019060200180831161097b57829003601f168201915b5050505050905090565b6109b46109ad610c2b565b838361122f565b5050565b6109c96109c3610c2b565b83610cec565b610a08576040517f08c379a00000000000000000000000000000000000000000000000000000000081526004016109ff906120fe565b60405180910390fd5b610a148484848461139c565b50505050565b6060610a2582610bbf565b610a64576040517f08c379a0000000000000000000000000000000000000000000000000000000008152600401610a5b906122b4565b60405180910390fd5b6000610a6e6113f8565b90506000815111610a8e5760405180602001604052806000815250610ab9565b80610a988461140f565b604051602001610aa9929190612310565b6040516020818303038152906040525b915050919050565b6000600560008473ffffffffffffffffffffffffffffffffffffffff1673ffffffffffffffffffffffffffffffffffffffff16815260200190815260200160002060008373ffffffffffffffffffffffffffffffffffffffff1673ffffffffffffffffffffffffffffffffffffffff16815260200190815260200160002060009054906101000a900460ff16905092915050565b60007f01ffc9a7000000000000000000000000000000000000000000000000000000007bffffffffffffffffffffffffffffffffffffffffffffffffffffffff1916827bffffffffffffffffffffffffffffffffffffffffffffffffffffffff1916149050919050565b60008073ffffffffffffffffffffffffffffffffffffffff166002600084815260200190815260200160002060009054906101000a900473ffffffffffffffffffffffffffffffffffffffff1673ffffffffffffffffffffffffffffffffffffffff1614159050919050565b600033905090565b816004600083815260200190815260200160002060006101000a81548173ffffffffffffffffffffffffffffffffffffffff021916908373ffffffffffffffffffffffffffffffffffffffff160217905550808273ffffffffffffffffffffffffffffffffffffffff16610ca6836106ee565b73ffffffffffffffffffffffffffffffffffffffff167f8c5be1e5ebec7d5bd14f71427d1e84f3dd0314c0f7b2291e5b200ac8c7c3b92560405160405180910390a45050565b6000610cf782610bbf565b610d36576040517f08c379a0000000000000000000000000000000000000000000000000000000008152600401610d2d906123a6565b60405180910390fd5b6000610d41836106ee565b90508073ffffffffffffffffffffffffffffffffffffffff168473ffffffffffffffffffffffffffffffffffffffff161480610db057508373ffffffffffffffffffffffffffffffffffffffff16610d98846104b7565b73ffffffffffffffffffffffffffffffffffffffff16145b80610dc15750610dc08185610ac1565b5b91505092915050565b8273ffffffffffffffffffffffffffffffffffffffff16610dea826106ee565b73ffffffffffffffffffffffffffffffffffffffff1614610e40576040517f08c379a0000000000000000000000000000000000000000000000000000000008152600401610e3790612438565b60405180910390fd5b600073ffffffffffffffffffffffffffffffffffffffff168273ffffffffffffffffffffffffffffffffffffffff161415610eb0576040517f08c379a0000000000000000000000000000000000000000000000000000000008152600401610ea7906124ca565b60405180910390fd5b610ebb838383611570565b610ec6600082610c33565b6001600360008573ffffffffffffffffffffffffffffffffffffffff1673ffffffffffffffffffffffffffffffffffffffff1681526020019081526020016000206000828254610f169190612519565b925050819055506001600360008473ffffffffffffffffffffffffffffffffffffffff1673ffffffffffffffffffffffffffffffffffffffff1681526020019081526020016000206000828254610f6d919061254d565b92505081905550816002600083815260200190815260200160002060006101000a81548173ffffffffffffffffffffffffffffffffffffffff021916908373ffffffffffffffffffffffffffffffffffffffff160217905550808273ffffffffffffffffffffffffffffffffffffffff168473ffffffffffffffffffffffffffffffffffffffff167fddf252ad1be2c89b69c2b068fc378daa952ba7f163c4a11628f55a4df523b3ef60405160405180910390a461102c838383611575565b505050565b6001816000016000828254019250508190555050565b600081600001549050919050565b600073ffffffffffffffffffffffffffffffffffffffff168273ffffffffffffffffffffffffffffffffffffffff1614156110c5576040517f08c379a00000000000000000000000000000000000000000000000000000000081526004016110bc906125ef565b60405180910390fd5b6110ce81610bbf565b1561110e576040517f08c379a00000000000000000000000000000000000000000000000000000000081526004016111059061265b565b60405180910390fd5b61111a60008383611570565b6001600360008473ffffffffffffffffffffffffffffffffffffffff1673ffffffffffffffffffffffffffffffffffffffff168152602001908152602001600020600082825461116a919061254d565b92505081905550816002600083815260200190815260200160002060006101000a81548173ffffffffffffffffffffffffffffffffffffffff021916908373ffffffffffffffffffffffffffffffffffffffff160217905550808273ffffffffffffffffffffffffffffffffffffffff16600073ffffffffffffffffffffffffffffffffffffffff167fddf252ad1be2c89b69c2b068fc378daa952ba7f163c4a11628f55a4df523b3ef60405160405180910390a461122b60008383611575565b5050565b8173ffffffffffffffffffffffffffffffffffffffff168373ffffffffffffffffffffffffffffffffffffffff16141561129e576040517f08c379a0000000000000000000000000000000000000000000000000000000008152600401611295906126c7565b60405180910390fd5b80600560008573ffffffffffffffffffffffffffffffffffffffff1673ffffffffffffffffffffffffffffffffffffffff16815260200190815260200160002060008473ffffffffffffffffffffffffffffffffffffffff1673ffffffffffffffffffffffffffffffffffffffff16815260200190815260200160002060006101000a81548160ff0219169083151502179055508173ffffffffffffffffffffffffffffffffffffffff168373ffffffffffffffffffffffffffffffffffffffff167f17307eab39ab6107e8899845ad3d59bd9653f200f220920489ca2b5937696c318360405161138f919061187c565b60405180910390a3505050565b6113a7848484610dca565b6113b38484848461157a565b6113f2576040517f08c379a00000000000000000000000000000000000000000000000000000000081526004016113e990612759565b60405180910390fd5b50505050565b606060405180602001604052806000815250905090565b60606000821415611457576040518060400160405280600181526020017f3000000000000000000000000000000000000000000000000000000000000000815250905061156b565b600082905060005b6000821461148957808061147290612779565b915050600a8261148291906127f1565b915061145f565b60008167ffffffffffffffff8111156114a5576114a4611ada565b5b6040519080825280601f01601f1916602001820160405280156114d75781602001600182028036833780820191505090505b5090505b60008514611564576001826114f09190612519565b9150600a856114ff9190612822565b603061150b919061254d565b60f81b81838151811061152157611520612853565b5b60200101907effffffffffffffffffffffffffffffffffffffffffffffffffffffffffffff1916908160001a905350600a8561155d91906127f1565b94506114db565b8093505050505b919050565b505050565b505050565b600061159b8473ffffffffffffffffffffffffffffffffffffffff16611702565b156116f5578373ffffffffffffffffffffffffffffffffffffffff1663150b7a026115c4610c2b565b8786866040518563ffffffff1660e01b81526004016115e694939291906128d7565b6020604051808303816000875af192505050801561162257506040513d601f19601f8201168201806040525081019061161f9190612938565b60015b6116a5573d8060008114611652576040519150601f19603f3d011682016040523d82523d6000602084013e611657565b606091505b5060008151141561169d576040517f08c379a000000000000000000000000000000000000000000000000000000000815260040161169490612759565b60405180910390fd5b805181602001fd5b63150b7a0260e01b7bffffffffffffffffffffffffffffffffffffffffffffffffffffffff1916817bffffffffffffffffffffffffffffffffffffffffffffffffffffffff1916149150506116fa565b600190505b949350505050565b6000808273ffffffffffffffffffffffffffffffffffffffff163b119050919050565b82805461173190611ea4565b90600052602060002090601f016020900481019282611753576000855561179a565b82601f1061176c57805160ff191683800117855561179a565b8280016001018555821561179a579182015b8281111561179957825182559160200191906001019061177e565b5b5090506117a791906117ab565b5090565b5b808211156117c45760008160009055506001016117ac565b5090565b6000604051905090565b600080fd5b600080fd5b60007fffffffff0000000000000000000000000000000000000000000000000000000082169050919050565b611811816117dc565b811461181c57600080fd5b50565b60008135905061182e81611808565b92915050565b60006020828403121561184a576118496117d2565b5b60006118588482850161181f565b91505092915050565b60008115159050919050565b61187681611861565b82525050565b6000602082019050611891600083018461186d565b92915050565b600081519050919050565b600082825260208201905092915050565b60005b838110156118d15780820151818401526020810190506118b6565b838111156118e0576000848401525b50505050565b6000601f19601f8301169050919050565b600061190282611897565b61190c81856118a2565b935061191c8185602086016118b3565b611925816118e6565b840191505092915050565b6000602082019050818103600083015261194a81846118f7565b905092915050565b6000819050919050565b61196581611952565b811461197057600080fd5b50565b6000813590506119828161195c565b92915050565b60006020828403121561199e5761199d6117d2565b5b60006119ac84828501611973565b91505092915050565b600073ffffffffffffffffffffffffffffffffffffffff82169050919050565b60006119e0826119b5565b9050919050565b6119f0816119d5565b82525050565b6000602082019050611a0b60008301846119e7565b92915050565b611a1a816119d5565b8114611a2557600080fd5b50565b600081359050611a3781611a11565b92915050565b60008060408385031215611a5457611a536117d2565b5b6000611a6285828601611a28565b9250506020611a7385828601611973565b9150509250929050565b600080600060608486031215611a9657611a956117d2565b5b6000611aa486828701611a28565b9350506020611ab586828701611a28565b9250506040611ac686828701611973565b9150509250925092565b600080fd5b600080fd5b7f4e487b7100000000000000000000000000000000000000000000000000000000600052604160045260246000fd5b611b12826118e6565b810181811067ffffffffffffffff82111715611b3157611b30611ada565b5b80604052505050565b6000611b446117c8565b9050611b508282611b09565b919050565b600067ffffffffffffffff821115611b7057611b6f611ada565b5b611b79826118e6565b9050602081019050919050565b82818337600083830152505050565b6000611ba8611ba384611b55565b611b3a565b905082815260208101848484011115611bc457611bc3611ad5565b5b611bcf848285611b86565b509392505050565b600082601f830112611bec57611beb611ad0565b5b8135611bfc848260208601611b95565b91505092915050565b600060208284031215611c1b57611c1a6117d2565b5b600082013567ffffffffffffffff811115611c3957611c386117d7565b5b611c4584828501611bd7565b91505092915050565b600060208284031215611c6457611c636117d2565b5b6000611c7284828501611a28565b91505092915050565b611c8481611952565b82525050565b6000602082019050611c9f6000830184611c7b565b92915050565b611cae81611861565b8114611cb957600080fd5b50565b600081359050611ccb81611ca5565b92915050565b60008060408385031215611ce857611ce76117d2565b5b6000611cf685828601611a28565b9250506020611d0785828601611cbc565b9150509250929050565b600067ffffffffffffffff821115611d2c57611d2b611ada565b5b611d35826118e6565b9050602081019050919050565b6000611d55611d5084611d11565b611b3a565b905082815260208101848484011115611d7157611d70611ad5565b5b611d7c848285611b86565b509392505050565b600082601f830112611d9957611d98611ad0565b5b8135611da9848260208601611d42565b91505092915050565b60008060008060808587031215611dcc57611dcb6117d2565b5b6000611dda87828801611a28565b9450506020611deb87828801611a28565b9350506040611dfc87828801611973565b925050606085013567ffffffffffffffff811115611e1d57611e1c6117d7565b5b611e2987828801611d84565b91505092959194509250565b60008060408385031215611e4c57611e4b6117d2565b5b6000611e5a85828601611a28565b9250506020611e6b85828601611a28565b9150509250929050565b7f4e487b7100000000000000000000000000000000000000000000000000000000600052602260045260246000fd5b60006002820490506001821680611ebc57607f821691505b60208210811415611ed057611ecf611e75565b5b50919050565b7f4552433732313a20617070726f76656420717565727920666f72206e6f6e657860008201527f697374656e7420746f6b656e0000000000000000000000000000000000000000602082015250565b6000611f32602c836118a2565b9150611f3d82611ed6565b604082019050919050565b60006020820190508181036000830152611f6181611f25565b9050919050565b7f4552433732313a20617070726f76616c20746f2063757272656e74206f776e6560008201527f7200000000000000000000000000000000000000000000000000000000000000602082015250565b6000611fc46021836118a2565b9150611fcf82611f68565b604082019050919050565b60006020820190508181036000830152611ff381611fb7565b9050919050565b7f4552433732313a20617070726f76652063616c6c6572206973206e6f74206f7760008201527f6e6572206e6f7220617070726f76656420666f7220616c6c0000000000000000602082015250565b60006120566038836118a2565b915061206182611ffa565b604082019050919050565b6000602082019050818103600083015261208581612049565b9050919050565b7f4552433732313a207472616e736665722063616c6c6572206973206e6f74206f60008201527f776e6572206e6f7220617070726f766564000000000000000000000000000000602082015250565b60006120e86031836118a2565b91506120f38261208c565b604082019050919050565b60006020820190508181036000830152612117816120db565b9050919050565b7f4552433732313a206f776e657220717565727920666f72206e6f6e657869737460008201527f656e7420746f6b656e0000000000000000000000000000000000000000000000602082015250565b600061217a6029836118a2565b91506121858261211e565b604082019050919050565b600060208201905081810360008301526121a98161216d565b9050919050565b7f4552433732313a2062616c616e636520717565727920666f7220746865207a6560008201527f726f206164647265737300000000000000000000000000000000000000000000602082015250565b600061220c602a836118a2565b9150612217826121b0565b604082019050919050565b6000602082019050818103600083015261223b816121ff565b9050919050565b7f4552433732314d657461646174613a2055524920717565727920666f72206e6f60008201527f6e6578697374656e7420746f6b656e0000000000000000000000000000000000602082015250565b600061229e602f836118a2565b91506122a982612242565b604082019050919050565b600060208201905081810360008301526122cd81612291565b9050919050565b600081905092915050565b60006122ea82611897565b6122f481856122d4565b93506123048185602086016118b3565b80840191505092915050565b600061231c82856122df565b915061232882846122df565b91508190509392505050565b7f4552433732313a206f70657261746f7220717565727920666f72206e6f6e657860008201527f697374656e7420746f6b656e0000000000000000000000000000000000000000602082015250565b6000612390602c836118a2565b915061239b82612334565b604082019050919050565b600060208201905081810360008301526123bf81612383565b9050919050565b7f4552433732313a207472616e736665722066726f6d20696e636f72726563742060008201527f6f776e6572000000000000000000000000000000000000000000000000000000602082015250565b60006124226025836118a2565b915061242d826123c6565b604082019050919050565b6000602082019050818103600083015261245181612415565b9050919050565b7f4552433732313a207472616e7366657220746f20746865207a65726f2061646460008201527f7265737300000000000000000000000000000000000000000000000000000000602082015250565b60006124b46024836118a2565b91506124bf82612458565b604082019050919050565b600060208201905081810360008301526124e3816124a7565b9050919050565b7f4e487b7100000000000000000000000000000000000000000000000000000000600052601160045260246000fd5b600061252482611952565b915061252f83611952565b925082821015612542576125416124ea565b5b828203905092915050565b600061255882611952565b915061256383611952565b9250827fffffffffffffffffffffffffffffffffffffffffffffffffffffffffffffffff03821115612598576125976124ea565b5b828201905092915050565b7f4552433732313a206d696e7420746f20746865207a65726f2061646472657373600082015250565b60006125d96020836118a2565b91506125e4826125a3565b602082019050919050565b60006020820190508181036000830152612608816125cc565b9050919050565b7f4552433732313a20746f6b656e20616c7265616479206d696e74656400000000600082015250565b6000612645601c836118a2565b91506126508261260f565b602082019050919050565b6000602082019050818103600083015261267481612638565b9050919050565b7f4552433732313a20617070726f766520746f2063616c6c657200000000000000600082015250565b60006126b16019836118a2565b91506126bc8261267b565b602082019050919050565b600060208201905081810360008301526126e0816126a4565b9050919050565b7f4552433732313a207472616e7366657220746f206e6f6e20455243373231526560008201527f63656976657220696d706c656d656e7465720000000000000000000000000000602082015250565b60006127436032836118a2565b915061274e826126e7565b604082019050919050565b6000602082019050818103600083015261277281612736565b9050919050565b600061278482611952565b91507fffffffffffffffffffffffffffffffffffffffffffffffffffffffffffffffff8214156127b7576127b66124ea565b5b600182019050919050565b7f4e487b7100000000000000000000000000000000000000000000000000000000600052601260045260246000fd5b60006127fc82611952565b915061280783611952565b925082612817576128166127c2565b5b828204905092915050565b600061282d82611952565b915061283883611952565b925082612848576128476127c2565b5b828206905092915050565b7f4e487b7100000000000000000000000000000000000000000000000000000000600052603260045260246000fd5b600081519050919050565b600082825260208201905092915050565b60006128a982612882565b6128b3818561288d565b93506128c38185602086016118b3565b6128cc816118e6565b840191505092915050565b60006080820190506128ec60008301876119e7565b6128f960208301866119e7565b6129066040830185611c7b565b8181036060830152612918818461289e565b905095945050505050565b60008151905061293281611808565b92915050565b60006020828403121561294e5761294d6117d2565b5b600061295c84828501612923565b9150509291505056fea26469706673582212200a665d6d92dbfc1bf10686ed21b55d423c0baf8a2c0ee78fd99654616310518064736f6c634300080c0033",
  "immutableReferences": {},
  "source": "// SPDX-License-Identifier: MIT\npragma solidity ^0.8.0;\n\nimport \"@openzeppelin/contracts/token/ERC721/ERC721.sol\";\nimport \"@openzeppelin/contracts/utils/Counters.sol\";\n\ncontract NFT is ERC721 {\n    using Counters for Counters.Counter;\n    string value;\n    Counters.Counter private _tokenId;\n    \n    constructor() ERC721('TestNFT', 'TEST') {}\n\n    function mint(address owner) public {\n        _tokenId.increment();\n\n        uint256 newTokenID = _tokenId.current();\n        _mint(owner, newTokenID);\n    }\n    function get() public view returns(string memory ) {\n        return value;\n    }\n    function set(string memory _value) public {\n        value = _value;\n    }\n}\n",
  "sourcePath": "/home/scs/Documents/ReactHooks/smartcontract-next/truffle/contracts/NFT.sol",
  "compiler": {
    "name": "solc",
    "version": "0.8.12+commit.f00d7308.Emscripten.clang"
  },
  "schemaVersion": "3.4.6",
  "updatedAt": "2022-03-16T06:48:07.596Z",
  "devdoc": {
    "kind": "dev",
    "methods": {
      "approve(address,uint256)": {
        "details": "See {IERC721-approve}."
      },
      "balanceOf(address)": {
        "details": "See {IERC721-balanceOf}."
      },
      "getApproved(uint256)": {
        "details": "See {IERC721-getApproved}."
      },
      "isApprovedForAll(address,address)": {
        "details": "See {IERC721-isApprovedForAll}."
      },
      "name()": {
        "details": "See {IERC721Metadata-name}."
      },
      "ownerOf(uint256)": {
        "details": "See {IERC721-ownerOf}."
      },
      "safeTransferFrom(address,address,uint256)": {
        "details": "See {IERC721-safeTransferFrom}."
      },
      "safeTransferFrom(address,address,uint256,bytes)": {
        "details": "See {IERC721-safeTransferFrom}."
      },
      "setApprovalForAll(address,bool)": {
        "details": "See {IERC721-setApprovalForAll}."
      },
      "supportsInterface(bytes4)": {
        "details": "See {IERC165-supportsInterface}."
      },
      "symbol()": {
        "details": "See {IERC721Metadata-symbol}."
      },
      "tokenURI(uint256)": {
        "details": "See {IERC721Metadata-tokenURI}."
      },
      "transferFrom(address,address,uint256)": {
        "details": "See {IERC721-transferFrom}."
      }
    },
    "version": 1
  },
  "userdoc": {
    "kind": "user",
    "methods": {},
    "version": 1
  }
}